:100000000C9463000C948B000C948B000C948B006C
:100010000C948B000C948B000C948B000C948B0034
:100020000C948B000C948B000C948B000C948B0024
:100030000C948B000C948B000C948B000C948B0014
:100040000C94E4030C948B000C948B000C948B00A8
:100050000C948B000C948B000C948B000C948B00F4
:100060000C948B000C948B000000000024002700EF
:100070002A0000000000250028002B0000000000DE
:1000800023002600290004040404040404040202DA
:100090000202020203030303030301020408102007
:1000A0004080010204081020010204081020000012
:1000B0000008000201000003040700000000000027
:1000C000000043057B0511241FBECFEFD8E0DEBF43
:1000D000CDBF11E0A0E0B1E0E4E9FDE002C0059091
:1000E0000D92AE31B107D9F721E0AEE1B1E001C028
:1000F0001D92A735B207E1F710E0C2E6D0E004C0D8
:100100002197FE010E948305C136D107C9F70E94DD
:100110002E040C94BD060C940000833081F028F46A
:10012000813099F08230A1F008958730A9F08830AD
:10013000B9F08430D1F4809180008F7D03C080912C
:1001400080008F7780938000089584B58F7702C0F8
:1001500084B58F7D84BD08958091B0008F7703C0F2
:100160008091B0008F7D8093B0000895CF93DF938E
:10017000E7EBF0E08491E3EAF0E0D491EFE8F0E01F
:10018000C491CC2391F081110E948D00EC2FF0E0FE
:10019000EE0FFF1FE458FF4FA591B491EC91ED23B2
:1001A00081E090E021F480E002C080E090E0DF9107
:1001B000CF9108951F93CF93DF93282F30E0F9015B
:1001C000E255FF4F8491F901E656FF4FD491F901B2
:1001D000EA57FF4FC491CC23C9F0162F81110E941A
:1001E0008D00EC2FF0E0EE0FFF1FEE58FF4FA591B2
:1001F000B4918FB7F894111105C09C91ED2FE09543
:10020000E92302C0EC91ED2BEC938FBFDF91CF91EE
:100210001F910895CF93DF9390E0FC01E656FF4FC6
:100220002491FC01EA57FF4F8491882361F190E00B
:10023000880F991FFC01E859FF4FC591D491FC012B
:10024000EE58FF4FA591B491611109C09FB7F89482
:100250008881209582238883EC912E230BC0623005
:1002600061F49FB7F8943881822F80958323888327
:10027000EC912E2B2C939FBF06C08FB7F894E8818A
:100280002E2B28838FBFDF91CF9108953FB7F8942D
:100290008091230190912401A0912501B091260124
:1002A00026B5A89B05C02F3F19F00196A11DB11DD1
:1002B0003FBFBA2FA92F982F8827820F911DA11D0C
:1002C000B11DBC01CD0142E0660F771F881F991F49
:1002D0004A95D1F708958F929F92AF92BF92CF9295
:1002E000DF92EF92FF926B017C010E9446014B016D
:1002F0005C01C114D104E104F104F1F00E94460153
:10030000DC01CB0188199909AA09BB09883E9340F1
:10031000A105B10570F321E0C21AD108E108F10886
:1003200088EE880E83E0981EA11CB11CC114D10474
:10033000E104F10419F7DDCFFF90EF90DF90CF904B
:10034000BF90AF909F908F9008958F929F92AF92A1
:10035000BF92CF92DF92EF92FF920F931F93CF93B2
:10036000DF93FC014A01AA24BB24B82DC32ED42E4E
:10037000E52EFF24AC2D922F8781882361F0889E83
:1003800040011124B92DC89E60011124AD2D289F74
:10039000E00111249D2FD584C285E084F184DC1214
:1003A00008C09B01220F331F620F731F6E0D7F1D4C
:1003B00016C0660F771F660F771F6E0D7F1D052F06
:1003C000112722273327EB01CD0DD11D882329F0DA
:1003D000089F90011124232F01C0202F288382859C
:1003E000EB01C80FD11DB8838385EB01C80FD11D68
:1003F000A8838485FB01E80FF11D9083DF91CF91E5
:100400001F910F91FF90EF90DF90CF90BF90AF9032
:100410009F908F9008951F93CF93DF93EC01162F39
:100420008981882331F08E8187FD03C060E00E94BE
:100430000A011E838981882341F061E0812F0E9497
:100440000A0160E0812F0E94DA00812F90E0FC0118
:10045000EA57FF4FE491F0E0EE0FFF1FEE58FF4F19
:10046000259134913B8B2A8BFC01E656FF4FE4919A
:10047000EC8BDF91CF911F910895CF92DF92EF9295
:10048000FF920F931F93CF93DF93CDB7DEB72997DA
:100490000FB6F894DEBF0FBECDBF8C01DC011896FD
:1004A0008D919C911997892B09F49EC00E94460159
:1004B000F801C684D784E088F188DC01CB018C196F
:1004C0009D09AE09BF09C297A105B10578F3F8945B
:1004D000848195819A8389830084F185E02D7F0151
:1004E000BFEFEB1AFB0A80818987F80190810288AF
:1004F000F389E02DD80154968C91992309F430C0EA
:100500009081982B98879081809589238F838F8104
:100510008C8388E08B8358856F8149853B812C8152
:1005200089819A81D701508347FD252F3A952083F1
:10053000262F39F0441F00C000006083000000C077
:10054000F2CF38E04D9160830000019761F7D80148
:100550005396FC93EE93529749873B832C833AC082
:100560009081982B98879081809589238F838F81A4
:100570008E8388E08D8358856F8149853D812E81EA
:1005800089819A81D701508347FD252F00C000C083
:10059000208300C000C000C000C000C06083000015
:1005A000262F3A9541F0441F000000C000C000C053
:1005B00000C000C0E8CF38E04D9100C0608300C0AB
:1005C000019709F7D8015396FC93EE935297498708
:1005D0003D832E839A83898378940E944601F80193
:1005E00066877787808B918B29960FB6F894DEBF4C
:1005F0000FBECDBFDF91CF911F910F91FF90EF9074
:10060000DF90CF900895DF92EF92FF920F931F93A8
:10061000CF93DF9350E4D52E62ECF62E1F2D10956C
:10062000ED2C0F2DC0E0D0E0809140019091410170
:10063000C817D90768F584E58E1560F022E0210F10
:10064000822F90E0A0E0B0E0BC01552744278EEF58
:10065000800F0FC089EA8E1580F02FEF200F822FB8
:1006600090E0A0E0B0E04427582F692F7A2F81E076
:10067000810F9A01AB01282B23C0802F90E0A0E0CE
:10068000B0E0DC01992788279C01AD01312B18C00F
:100690008EE391E00E943D0265E070E080E090E032
:1006A0000E946B018DEFF80EDA9485ECF812B6CF4C
:1006B000DF91CF911F910F91FF90EF90DF90089500
:1006C000BE018EE391E00E94A501219603501D5FBB
:1006D000EA94AACFEF92FF920F931F93CF93DF93E9
:1006E00026E0E22E21E0F22EC0E0D0E0825F9E4FB5
:1006F000FC01008110E0B8010C2E02C075956795D1
:100700000A94E2F76170772781E06827F701819109
:100710007F010E94DA002196C830D10561F7DF9190
:10072000CF911F910F91FF90EF900895EF92FF925C
:100730000F931F93CF93DF93EC017B0188859985FD
:10074000009711F00E941E069D858A85981719F062
:1007500084E090E002C083E090E08E9D80018F9D58
:10076000100D9E9D100D11241D830C83C8010E9445
:10077000890599878887009741F0A80160E070E0BB
:100780000E94B606FB82EA8204C01D821C821B8284
:100790001A82DF91CF911F910F91FF90EF900895F2
:1007A000CF93DF93EC0188859985009711F00E9423
:1007B0001E068E8187FD05C060E0DF91CF910C940D
:1007C0000A01DF91CF9108951F920F920FB60F92F9
:1007D00011242F933F938F939F93AF93BF93809157
:1007E0001F0190912001A0912101B091220130912F
:1007F0001E0123E0230F2D3720F40196A11DB11D0A
:1008000005C026E8230F0296A11DB11D20931E01ED
:1008100080931F0190932001A0932101B0932201A6
:100820008091230190912401A0912501B09126018E
:100830000196A11DB11D8093230190932401A093E3
:100840002501B0932601BF91AF919F918F913F9168
:100850002F910F900FBE0F901F901895789484B52C
:10086000826084BD84B5816084BD85B5826085BDAC
:1008700085B5816085BD80916E00816080936E003A
:10088000109281008091810082608093810080912C
:1008900081008160809381008091800081608093DD
:1008A00080008091B10084608093B1008091B0009D
:1008B00081608093B00080917A00846080937A0098
:1008C00080917A00826080937A0080917A008160C2
:1008D00080937A0080917A00806880937A001092E9
:1008E000C10061E081E00E940A0161E082E00E94B3
:1008F0000A0161E083E00E940A0161E084E00E9455
:100900000A0161E085E00E940A0161E086E00E9440
:100910000A0161E087E00E940A0161E088E00E942C
:100920000A0160E089E00E940A0160E088E00E941C
:10093000DA0060E087E00E94DA0060E082E00E9476
:10094000DA0060E081E00E94DA0060E086E00E9468
:10095000DA0060E085E00E94DA0060E084E00E9456
:10096000DA0060E083E00E94DA0064EF71E080E08A
:1009700090E00E946B0180912D0187FD08C061E02D
:100980000E940A0160E080912D010E94DA0081E05E
:10099000809328018091290190912A01892B49F0A7
:1009A00020E030E0A90160E070E087E291E00E9481
:1009B000A50187E291E00E943D020E940303C0E08E
:1009C000D0E08AE090E00E946A038CE090E00E9410
:1009D0006A0368EE73E080E090E00E946B018AE0B9
:1009E00090E00E946A0388E090E00E946A0368EE4B
:1009F00073E080E090E00E946B018AE090E00E944A
:100A00006A038DE090E00E946A0368EE73E080E084
:100A100090E00E946B018EE090E00E946A0368EE15
:100A200073E080E090E00E946B010E94B60090931A
:100A30003D0180933C0180913C0190913D01892BC7
:100A400049F40E94B60090933D0180933C010E94BE
:100A50000303F1CF8091290190912A01892B49F05C
:100A600020E030E0A90160E070E087E291E00E94C0
:100A7000A50187E291E00E943D02209709F4A1CFF1
:100A80000E9400009ECFCF93DF93EEE3F1E011824E
:100A900017821186108616861786108A118AC1E081
:100AA000C587C2871386D2E0D487C08361E070E037
:100AB000CF010E9496036AE08EE391E00E940B0250
:100AC000E7E2F1E0118217821186108616861786FA
:100AD000108A118AC587C2871386D487C08361E0D4
:100AE00070E0CF010E9496036AE087E291E0DF9117
:100AF000CF910C940B0287E291E00E94D0038EE329
:100B000091E00C94D003EE0FFF1F0590F491E02DBF
:100B10000994CF93DF938230910510F482E090E046
:100B2000E0915501F091560120E030E0C0E0D0E0C6
:100B3000309711F14081518148175907C0F048178B
:100B4000590761F482819381209719F09B838A83EE
:100B50002BC0909356018093550126C02115310575
:100B600019F04217530718F49A01BE01DF01EF0193
:100B70000280F381E02DDCCF2115310509F1281B1E
:100B8000390B2430310590F412968D919C91139776
:100B90006115710521F0FB019383828304C090935A
:100BA000560180935501FD01329644C0FD01E20FCC
:100BB000F31F81939193225031092D933C933AC0B6
:100BC0002091530130915401232B41F420910201D3
:100BD000309103013093540120935301209100017F
:100BE000309101012115310541F42DB73EB74091F7
:100BF000040150910501241B350BE0915301F09144
:100C00005401E217F307A0F42E1B3F0B28173907F6
:100C100078F0AC014E5F5F4F2417350748F04E0F58
:100C20005F1F50935401409353018193919302C0ED
:100C3000E0E0F0E0CF01DF91CF9108950F931F9393
:100C4000CF93DF93009709F48CC0FC013297138295
:100C5000128200915501109156010115110581F480
:100C600020813181820F931F2091530130915401D3
:100C70002817390779F5F0935401E093530171C0B7
:100C8000D80140E050E0AE17BF0750F412962D9106
:100C90003C911397AD012115310509F1D901F3CF2D
:100CA0009D01DA013383228360817181860F971F52
:100CB0008217930769F4EC0128813981260F371FC9
:100CC0002E5F3F4F318320838A819B819383828370
:100CD000452B29F4F0935601E093550142C0139639
:100CE000FC93EE931297ED01499159919E01240FC7
:100CF000351FE217F30771F480819181840F951FEE
:100D0000029611969C938E938281938113969C9365
:100D10008E931297E0E0F0E0D80112968D919C91AD
:100D20001397009719F0F8018C01F6CF8D919C91E3
:100D300098012E5F3F4F820F931F209153013091F6
:100D400054012817390769F4309729F41092560195
:100D50001092550102C01382128210935401009325
:100D60005301DF91CF911F910F910895DC0101C0D4
:100D70006D9341505040E0F7089510E0C2E6D0E096
:100D800004C0FE010E9483052196C336D107C9F72E
:040D9000F894FFCF05
:100D940000005701800006050302010708043F060E
:0E0DA4005B4F666D7D077F6F004038798000E1
:107E0000112484B714BE81FFF0D085E080938100F7
:107E100082E08093C00088E18093C10086E0809377
:107E2000C20080E18093C4008EE0C9D0259A86E02C
:107E300020E33CEF91E0309385002093840096BBD3
:107E4000B09BFECF1D9AA8958150A9F7CC24DD24C4
:107E500088248394B5E0AB2EA1E19A2EF3E0BF2EE7
:107E6000A2D0813461F49FD0082FAFD0023811F036
:107E7000013811F484E001C083E08DD089C08234E0
:107E800011F484E103C0853419F485E0A6D080C0E4
:107E9000853579F488D0E82EFF2485D0082F10E0AE
:107EA000102F00270E291F29000F111F8ED06801E7
:107EB0006FC0863521F484E090D080E0DECF843638
:107EC00009F040C070D06FD0082F6DD080E0C81688
:107ED00080E7D80618F4F601B7BEE895C0E0D1E017
:107EE00062D089930C17E1F7F0E0CF16F0E7DF06D8
:107EF00018F0F601B7BEE89568D007B600FCFDCFD4
:107F0000A601A0E0B1E02C9130E011968C91119780
:107F100090E0982F8827822B932B1296FA010C0160
:107F200087BEE89511244E5F5F4FF1E0A038BF0790
:107F300051F7F601A7BEE89507B600FCFDCF97BE46
:107F4000E89526C08437B1F42ED02DD0F82E2BD052
:107F50003CD0F601EF2C8F010F5F1F4F84911BD097
:107F6000EA94F801C1F70894C11CD11CFA94CF0C13
:107F7000D11C0EC0853739F428D08EE10CD085E9AC
:107F80000AD08FE07ACF813511F488E018D01DD067
:107F900080E101D065CF982F8091C00085FFFCCF94
:107FA0009093C60008958091C00087FFFCCF809118
:107FB000C00084FD01C0A8958091C6000895E0E648
:107FC000F0E098E1908380830895EDDF803219F02E
:107FD00088E0F5DFFFCF84E1DECF1F93182FE3DFCA
:107FE0001150E9F7F2DF1F91089580E0E8DFEE27F6
:047FF000FF270994CA
:027FFE00040479
:0400000300007E007B
:00000001FF
